:10400000007F0020918500004184000021B2000063
:104010008D8500008D8500008D8500008D85000058
:104020000000000000000000000000008D8500007E
:104030008D850000000000008D8500008D8500004A
:104040000000000000000000000000000000000070
:104050000000000000000000000000000000000060
:104060000000000000000000000000000000000050
:104070000000000000000000000000000000000040
:104080000000000000000000000000000000000030
:104090000000000000000000000000000000000020
:1040A0000000000000000000000000000000000010
:1040B0000000000000000000000000000000000000
:1040C00010B5054C237833B9044B13B10448AFF352
:1040D00000800123237010BD580200200000000062
:1040E0008022010008B5034B1BB103490348AFF31D
:1040F000008008BD000000005C020020802201005A
:1041000010B54FF480630B220A210748074C00F0DA
:1041100007FC074B2046197800F02EF92146054888
:10412000BDE8104000F0D2B9740200205C04002009
:10413000000000207004002010B54FF4E131064863
:1041400005F004FE002340F213424FF416510348D9
:10415000BDE8104000F046BC20050020740200209D
:1041600010B5164C2DED028B204600F045FA204686
:10417000002100F0B9FA10EE100A09F0D3FC41EC6E
:10418000180B0F4CB0EE480AF0EE680A02210D48F9
:1041900006F0BAFCB0EE480AF0EE680A02212046AA
:1041A00006F0B0FC20460A2100F054FBBDEC028B67
:1041B0004FF47A70BDE8104007F02EB9700400206B
:1041C0007402002020050020014800F00FBE00BF4F
:1041D0007402002038B5056872B6EDB20021284699
:1041E00007F066F862B67D24013C14F0FF0428D085
:1041F000022007F00DF9284607F07EF80028F3D0DA
:1042000072B60021284607F06BF80121284607F016
:104210004FF862B64FF4F07007F0FAF872B600216A
:10422000284607F045F8462007F0F2F8284607F040
:1042300063F8B0FA80F4640962B64FF4CD7007F009
:10424000E7F8204638BD10B511F00101047815D00B
:1042500072B60021204607F043F80121204607F0FE
:1042600027F80A2007F0D4F80121204607F038F893
:1042700062B63720BDE8104007F0CAB872B62046D3
:1042800007F02EF80121204607F012F8412007F030
:10429000BFF80121204607F023F862B60520E9E7C0
:1042A00010B5046872B6E4B22046012107F000F8A8
:1042B0000021204607F014F8032007F0A9F8002198
:1042C000204606F0F5FF0A2007F0A2F8204607F086
:1042D00013F8044662B6352007F09AF8204610BD60
:1042E0002DE9F0410546884616460827012418EABC
:1042F000040F14BF012100212846FFF7A4FF64002A
:10430000013FE4B2F3D14EB972B63146287806F0D7
:10431000CFFF3146287806F0E3FF62B6BDE8F081B2
:10432000F8B507460826002501243846FFF7B8FFF0
:1043300000B125436400013EE4B2F6D12846F8BD41
:1043400070B500220C4655210646FFF7C9FF651ED1
:10435000073415F8011F00223046FFF7C1FFA542C0
:10436000F7D170BD0022CC21FFF7BABF00238374C0
:10437000C0E902330382704738B50D460446002178
:10438000284606F095FF0023256063602046BDE8BF
:104390003840FFF7EBBF2DE9F047867C044689469D
:1043A000154616B9FFF716FF20B90020A074208229
:1043B000BDE8F0876DB33246F0212046FFF790FF4D
:1043C00001260027BA4635462046FFF769FF80469A
:1043D0002046FFF765FFB8F1010F1DD101283BD141
:1043E000402DE2D984F810A0BAF1000F01D10123C9
:1043F000A374237A002BD8D004F1080309F1FF310C
:10440000103413F8012B01F8012FA342F9D1012038
:10441000CEE72A46EC21D0E7804504EB070310D114
:10442000227CAA4212D91A7A164214BF4FF0010810
:104430004FF00008B8F1000F0ED1082D00D86574B8
:10444000AA461A7A22EA06021A720BE00CBF4FF053
:1044500001084FF00008EDE7E2194FF00108137A68
:1044600033431372414620467600FFF7ECFE16F008
:10447000FF0604BF0137FFB205F1010508BF0126A1
:10448000072FEDB2A0D9ABE710B5094A01440023CC
:1044900088420AD010F8014B634003F00F0402EB8E
:1044A0001313145D1B7C6340F2E7184610BD00BF78
:1044B000DC1101000023C371037203700923C37070
:1044C0000123C160037143718371704708B50023F4
:1044D000C3614370FFF7EEFF08BD10B50C462046E0
:1044E0000721FFF7D1FFE3791B1A5842584110BD4D
:1044F000F8B50546C0680E461746FFF737FF00249B
:1045000001223146E868FFF746FF30B1E3B29F422F
:1045100005D00134E3B2BB42F2D9002005E03146B8
:104520002846FFF7DAFF0028F3D0F8BD70B504463F
:10453000C0680E461546FFF74DFEB8B13146E0683B
:10454000FFF7FEFE0022BE21E068FFF7C9FE6E1EE7
:104550000835E068FFF7E4FE06F8010FAE42F8D137
:10456000E068FFF737FE431E5842584170BD08B55A
:10457000C068FFF795FE431E5842584108BD437876
:104580001BB10021807806F0ABBE704743781BB1A9
:104590000121807806F0A4BE7047FFFF70B5437913
:1045A000044693B1037883B906F07AFF40F2ED2612
:1045B00005462046FFF7DBFFD8B906F071FF401B28
:1045C000B04216D806F027FFF3E70939C9B202292D
:1045D0009ABF084B33F9115040F2EE252046FFF701
:1045E000CEFF284606F018FF2046BDE87040FFF7D2
:1045F000CDBF70BDFC11010010B50446C068FFF7C7
:10460000E9FDE068FFF7AEFE2278E0684421FFF79D
:1046100067FE23792BB1E1782046BDE81040FFF713
:10462000BDBF10BD10785378C00040EAC3200B789E
:10463000102B00B20CD1D17951B19379C000CB1AB3
:10464000DB0120F07F0093FBF1F3203B184400B224
:104650007047FFFF10F5DC5FC6BF00EE100ABAEE30
:10466000EC0A9FED010A70470000FEC20A44914225
:1046700005D011F8013B002BF9D000207047012034
:10468000704738B505461446FFF750FF68B1092258
:1046900021462846FFF7EAFF40B908212046FFF7E8
:1046A000F3FE237A1B1A5842584138BD0020FCE71C
:1046B00030B585B001AA04460D46FFF7E2FF30B1E0
:1046C00001AA29462046FFF7ADFF05B030BD0148DD
:1046D000FBE700BF80E4FFFF08B5FFF7E9FFBDE897
:1046E0000840FFF7B7BFFFFF13B50A466946044607
:1046F000FFF7FEFE28B169462046FFF7EDFF02B046
:1047000010BD9FED010AFAE70000FEC200207047CD
:104710007047D0F870017047D0F87821D0F87C311C
:104720009A4210B51FD0D0F88031C3B1D0F87811BB
:10473000D0F87C21914214D0D0F87821D0F874417F
:104740009B56D0F87021013AC0F87021D0F878213A
:104750000132B2FBF4F104FB1122C0F878211846B3
:1047600010BD0023FBE74FF0FF30F9E773B544F6C7
:104770004E730D460646ADF804300A224523C16942
:104780008DF80630284606F0EFF80E490446284614
:1047900006F0BEF8F17D04440A22284606F0F1F83E
:1047A000337D02AA1344044413F9041C284606F07E
:1047B000B3F80A220444317E284606F0E2F8204489
:1047C00002B070BDBD120100A0F11000FFF7CEBF16
:1047D00030B52DED028B85B0044604A808EE101A02
:1047E000002100F8011D154604F002F9C3B2072BA1
:1047F00005D94FF0FF3005B0BDEC028B30BD9DF800
:104800000F20002AF5D1CDE90022DFED0F0AB8EE26
:10481000480A1146204604F091F96DB14FF48031F9
:10482000204604F097FA0028E3D04FF48031204668
:1048300004F095FA0028DCD0204604F0DDF920468B
:1048400004F001FA0020D6E7000048420068243056
:1048500004F0F9B92DE9F84F90F814A090F817C0BA
:10486000AAF10104B4FA84F407466409BCF1000F0C
:1048700022D090F8A0E090F91590012606FA0EF6E5
:104880001FFA86F800F1BC054646002041FA00F305
:1048900003F0010389EA0303DBB203FA0EF226EA0E
:1048A000020B013008EA020242EA0B42604584EA48
:1048B000030445F8042FE9D1BAF1000F03D007EB48
:1048C0008C0CCCF8C040F96E07F1240407F180008D
:1048D00002F042FF204604F0CDF9204604F0E1F951
:1048E000D7F88820137F002BFCD10120BDE8F88F7A
:1048F000D0F87821D0F87C319A420ED0D0F88031AF
:104900004BB1D0F87811D0F87C21914203D0D0F887
:10491000782198567047002070474FF0FF3070475D
:104920002DE9F84390462A4A026000251E4630329F
:104930004FF47A730446C0E9015302610F46102216
:104940002946143009F072FE4FF0FF3904F12400BB
:1049500003F08CFFC4F8B050C4E92995C4F8AC50FA
:10496000C4F8B450C4F8B85004F1EC0003F07EFF72
:10497000C4F87851C4F86C91C4F87051C4F87461EB
:10498000C4F87C51C4F8805156B1304608F05AFF43
:10499000D4F88031C4F8800113B1184608F05CFFE8
:1049A000B8F1130F05D90B4B0B4A0C48BF2103F08C
:1049B00011FD132F05D90A4B074A0848C02103F0FF
:1049C00009FD84F8E48184F8E5712046BDE8F883A8
:1049D000C812010019120100141301003312010062
:1049E000A31201002DE9F04715461F4690F8E42177
:1049F000BC4B0E4633F8321090F8E521A0F8A01019
:104A000033F83230A0F8683104461522B64801F078
:104A1000E1FC022194F8E50105F01EF9C4F86C01EF
:104A2000013006D044F21002B4F86811AE4801F02B
:104A3000D1FCB4F86831A37505F47063B3F5407F19
:104A40000CBF07230823E37505F0F003302B05F0B6
:104A50000F050CBF02230123012D6775E661237644
:104A600022D0022D23D101232375E37D227DB4F8CA
:104A7000A050277E0133002A18BF0133E9B201227A
:104A80008A4092B23B4411042362C4F8BC109B00DC
:104A900000216FF0030C8F420CD90CFB0130204435
:104AA0000131C0F8B820F6E702232375DDE70023C3
:104AB0002375DAE704F12408002231464046FFF767
:104AC00087FE074610B10020BDE8F087404604F09D
:104AD00091F8072898BF854B218C98BF185C844BB0
:104AE000A4F86A104FEA15254FEA45152B4404F146
:104AF000BC024FF00005A4F868502266636694F883
:104B00005F3094F85E10C4F89C404FF0020203F04E
:104B10003F0362F3051362F3830301F01F0184F87E
:104B20005F3041F0100365F3830384F85E304FF08B
:104B30000C0304F15C0684F88E304FF0DF0388BF6D
:104B4000384684F88D3001276A4BE66604F18C0AFA
:104B500004F16C0904F18008674EC4F89070A4F861
:104B6000947084F88C70C4F8983084F89600C4F877
:104B700070A0C4F87890C4F87480E66704F072F905
:104B80002A46514604F0FCFF00289CD04946404686
:104B900002F0BCFD002896D1E16E404602F0DCFD3B
:104BA000002890D104F1EC093A46E169B4F8685163
:104BB0004846FFF70DFE8046002884D1484604F0A1
:104BC00019F8072898BF494B218C98BF185CA4F8A6
:104BD00032114FEA15234FEA431303F180434FF09C
:104BE000000503F10413A4F83051C4F8283194F8F7
:104BF000273184F854514FF0020104F5C27203F0DA
:104C00003F0361F30513C4F82C2194F82621C4F85E
:104C1000644165F3830384F8273102F00F0361F3E5
:104C2000830384F826314FF00103C4F85831A4F807
:104C30005C314FF00C0304F5927784F856314FF055
:104C4000DF0388BF404684F85531C4F834712B4BDC
:104C5000C4F8603104F5AA7904F59A7804F5A477CC
:104C600084F85E01C4F83891C4F84081C4F83C71FE
:104C7000C4F8446104F0F6F82A46494604F080FF7F
:104C800000283FF420AF4146384602F03FFD00289F
:104C90007FF419AFD4F83411384602F05DFD0028D6
:104CA0007FF411AFD4F86C310F2B3FF60CAF144AE0
:104CB000D45C002C3FF407AF1249134802F0BAFB52
:104CC000014600287FF4FFAE22460F4802F0DCFBCD
:104CD00000287FF4F8AE0C4802F0DEFBB0FA80F05A
:104CE0004009F1E64C140100901B00200C13010058
:104CF000080004404D480000C0150100C54D0000EB
:104D0000FC1201000212010090040020F8B52C4DA5
:104D1000D0F834112B6883F0010303EB430300EB5D
:104D2000031303F5C27304468B6000F5A47002F010
:104D300013FDD5F800C0E07D0CEB4C0104EB011134
:104D4000D8B30022A77D667D01F5C271964651F861
:104D5000043FFB4003F001037340934043EA0E031A
:104D600001325BB282425FFA83FEF0D1D4F8800157
:104D7000F8B1D4F87C21D4F87461D4F87871013298
:104D8000B2FBF6F106FB1122BA4212D0D4F8702120
:104D9000D4F87C110132C4F870214354D4F87C312A
:104DA000D4F874110133B3FBF1F201FB1233C4F8F0
:104DB0007C318CF001032B60F8BD0346D6E700BFC1
:104DC0009804002010B504460068EC3003F03BFF67
:104DD0002068BDE81040FFF799BF10B50446006891
:104DE00008B108F039FD204610BDFFFF0C4B10B58F
:104DF00003F10802383304460260036100F5C07015
:104E0000FFF7EBFF04F1EC0003F09EFF04F1B800A4
:104E1000FFF7E3FF04F1240003F096FF204610BDE6
:104E2000C012010010B50446FFF7E0FF20464FF422
:104E3000F47108F0E3FC204610BD08B506F0D2FA84
:104E4000002008BD272070477047FFFF37B5FFF7E8
:104E5000FBFF01210D2006F02BFA00210D2006F0AA
:104E60003FFA68460722032108F058FCBDF80030DD
:104E70001C4CC3F384130125684607220521E55421
:104E800008F04CFCBDF80030C3F3841368460722D9
:104E90000621E55408F042FCBDF80030C3F384134A
:104EA000684607220921E55408F038FCBDF80030B7
:104EB000C3F38413684607220A21E55408F02EFC48
:104EC000BDF80030C3F3841307220B216846E55474
:104ED00008F024FCBDF80030C3F38413E55403B09C
:104EE00030BD00BFAA040020F0B44B788E780A7859
:104EF000CD780F4C1B013603A75C0C794A7906F478
:104F000040562D02DBB205F44071334307F0030530
:104F10000B43D201E101074C2B43C9B2064DA171ED
:104F2000D2B26380227205600020F0BC704700BFDF
:104F3000841501000042044054445700024B0020F5
:104F4000FF2218701A7070470042044070B5836ADF
:104F500084B004460E46ABB193E8070001AD85E886
:104F600007006168E26A097819601E719A60184644
:104F7000636A9847A36A1BB195E8070083E80700B6
:104F800004B070BD01AD2B46EBE700BF30B4EFF3CA
:104F90000383103B5BB203F1C0011C4A1C4C52F866
:104FA00021006FF3104042F8210054F82330D3E978
:104FB00006218A4212D018699C6868B193F8205083
:104FC0000F2D18D9616840F82210D96901328A4240
:104FD0009A6103D030BC70476068F7E75B680D49A1
:104FE00093F90330012203F01F005B09824041F86E
:104FF000232030BC7047072D03D821798154D9690B
:10500000E4E7A48820F81240E0E700BF0060004019
:10501000141C002000E100E0F0B4EFF30383103B28
:105020005BB203F1C0022849284C51F822006FF30B
:10503000104041F8220054F823305C685A69206A15
:10504000DD6910B1407801280FD0AA420BD0D3E916
:10505000020129B193F820400F2C16D951F82210E3
:10506000416001325A61F0BC70476E1E964214D006
:1050700021690029E9D094F90310154C01F01F06AD
:105080004909B04044F82100DFE7072C95BF895C4F
:1050900031F8121001718180E3E794F9036006F1A1
:1050A000C0077409A40051F827C004F1604404F556
:1050B000614406F01F06B0406FF3104C41F827C062
:1050C000C4F880012060C0E700600040141C00208C
:1050D00000E100E070B4EFF30383103B5BB2304AB1
:1050E000304C03F1C00152F821006FF3104042F838
:1050F000210054F823008268D278920705D54268CF
:10510000527A012A01D070BC70475909203101221E
:10511000254C03F01F0302FA03F344F82130BFF3D8
:105120004F8FBFF36F8F436893F90230002B2EDB54
:105130005909203103F01F0302FA03F344F8213028
:10514000BFF34F8FBFF36F8FD0E90114237891F92C
:1051500002106FF386130029237014DB01F1C005E0
:105160000F4C4B099B0054F8256003F1604303F595
:10517000614301F01F018A406FF3104644F8256037
:10518000C3F880211A60012170BCFFF7DFBE82687E
:1051900013786FF386131370012170BCFFF7D6BE2E
:1051A00000600040141C002000E100E0F8B5EFF3BF
:1051B0000384103C314B64B253F82460736893F954
:1051C0000230002B42DB5A09203201202C4903F027
:1051D0001F0300FA03F341F82230BFF34F8FBFF3F0
:1051E0006F8FD6E90112137891F902106FF38613CD
:1051F0000029137015DB01F1C007224D4B099B00FC
:1052000055F827C003F1604303F5614301F01F0126
:1052100000FA01F16FF3104C45F827C0C3F8801174
:105220001960D5780023EDB2D3702A0721D4EB079B
:1052300012D405F01405142D16D0C034114B53F8B8
:1052400024206FF3104243F82420F8BDB26813788D
:105250006FF386131370E4E70421304605F014055C
:10526000FFF774FE142DE8D130460821FFF76EFEDB
:10527000E3E705213046FFF769FED8E7141C00205C
:1052800000E100E00060004070B50D46016A8B78D7
:1052900003F07B038B700378044623B3C0E9035209
:1052A000E369186988B122697AB1A37881680068D6
:1052B0008E68E16803F00303013B22FA03F3002246
:1052C0009BB22261B04768B9216A8B7843F08003B2
:1052D0008B70207878B9A37803F00303022B0CD0ED
:1052E0002B78CB7070BD837803F00303D21A2B4464
:1052F000C0E90332D4E7002070BD2B8843F47E431D
:10530000CB8170BD036A9A7870B4D2B2054602F0C0
:105310000B004E780C7898700020E8608D785D70F6
:105320001D7866F301051D70C9789974DD7904F064
:105330005C0105F0A304214302F07B02D97170BC2B
:105340009A707047F0B5846A85B006468C46174659
:10535000BCB194E80F006D4685E80F00F269F36A6E
:1053600012782260E360C4F808C027712046736A8F
:105370009847B46A1CB195E80F0084E80F0005B0A7
:10538000F0BD6D462C46E9E770B5D0E9072592F9E6
:1053900005202F49044650090123203002F01F0246
:1053A000002603FA02F26660AE7041F82020BFF3D7
:1053B0004F8FBFF36F8FE26992F90B2050092030B5
:1053C00002F01F0203FA02F241F82020BFF34F8FD0
:1053D000BFF36F8FE26992F907205009203002F085
:1053E0001F0203FA02F241F82020BFF34F8FBFF3F0
:1053F0006F8FE26992F909205009203002F01F02F4
:10540000934041F82030BFF34F8FBFF36F8FE369B4
:10541000DA6822B1936810681B6A9847E3691B69D0
:105420001BB19A681868136A9847EFF3108201233A
:1054300083F31088E069074900784C68C0F11F00C9
:10544000834023434B604B6882F31088002070BD7B
:1054500000E100E0FC6F04402DE9F8430D460978B7
:105460000323CB4013F0010301F1007218BF102396
:10547000037002F5605283785201012102620446F2
:105480006A78C56161F30103D5E905106162002105
:10549000A370C4E90A1022B9DBB2022262F301034D
:1054A000A37095F90B60674BA87A7209203206F059
:1054B0001F07012101FA07F743F82270BFF34F8F4E
:1054C000BFF36F8F604A614F06F1C00C03EB060813
:1054D00052F82CE000016FF3104E42F82CE0C0B2FD
:1054E00088F8000395F9050047F826404FEA501C5C
:1054F0000CF1200C00F01F0E01FA0EFE2E7943F87D
:105500002CE0BFF34F8FBFF36F8F00F1C00C03EBA4
:10551000000852F82CE036016FF3104E42F82CE0F0
:10552000F6B288F8006395F9076047F820404FEA23
:10553000561C0CF1200C06F01F0E01FA0EFEA87985
:1055400043F82CE0BFF34F8FBFF36F8F06F1C00C11
:1055500003EB060852F82CE000016FF3104E42F8FE
:105560002CE0C0B288F8000395F9090047F82640FE
:105570004FEA501C00F01F060CF1200CB1402E7AAF
:1055800043F82C10BFF34F8FBFF36F8F00F1C00CA7
:10559000310152F82C600344C9B26FF3104642F84F
:1055A0002C6083F8001347F82040EB68F3B159688A
:1055B000266A0A68E7694FF4002C701DC2E900C032
:1055C00094F800C0BCF1000F01D0113656607E780F
:1055D00036B9D67801270B3067F305165060D670C0
:1055E0009A68186813689847064640BB2B69002BD9
:1055F0002ED05968266A0A68E7694FF0006CF01CE3
:10560000C2F800C0906094F800C0BCF1000F01D057
:105610000F3696607E7836B9D67801270B3067F35F
:1056200005169060D6709A68186813689847064601
:1056300070B1EB681BB19A681868136A98473046D6
:10564000BDE8F88300E100E000600040141C002089
:10565000EFF31082012383F310889B492E7848686A
:10566000C6F11F06B34020EA03034B604B6882F388
:105670001088236A00229A701A715A729A72DA722A
:105680005A83297840F20722CA40D20744BF4022F9
:10569000DA7406221A772278E16972B1C868013A91
:1056A000002800F008810120120392B2024342F068
:1056B00006009882988A8242FCD1EE786A78A878AF
:1056C000F600032A46EA001600F0E280002A0CBF2A
:1056D0004FF0E20E4FF0F20EED696A7895F802C0D5
:1056E0002F7B2878F6B2D2014FEA4C1C1E700CF0CA
:1056F000200C7F00D2B2861E07F0020742EA0C029D
:10570000012E4FF0000C83F806E05F7383F808C0A9
:1057100040F2C8806E68D2B2DA71B2785A701F78DF
:1057200096F801C032786CF301071F70F6789E740A
:10573000DE7902F05C0206F0A3063243DA7191F9D9
:1057400005C0624E0027C4E90377C4E905770CF170
:10575000C00200F0030056F822E067F3104E46F84E
:1057600022E04FEA5C12920091F90B8002F1604254
:1057700002F561420CF01F0E4FF0010C08F1C00958
:105780000CFA0EFEC2F880E1C2F800E056F82920BB
:1057900067F3104246F829204FEA5812920091F917
:1057A00007E002F1604202F5614208F01F080EF1C5
:1057B000C0090CFA08F8C2F88081C2F8008056F8D7
:1057C000292067F3104246F829204FEA5E12920022
:1057D00091F9091002F1604202F561420EF01F0ECC
:1057E00001F1C0080CFA0EFEC2F880E1C2F800E038
:1057F00056F828E067F3104E46F828E04A09920070
:105800006D8902F1604202F5614201F01F014FF61D
:10581000FF760CFA01F140F07000B542C2F8801139
:105820001160987025812DD0EFF310818CF31088D2
:10583000274A13681BB927484025C370C5701368F1
:105840000133136081F31088218923480B0A1B015F
:1058500053FA81F150F8213023F0011323F440432F
:1058600043F0040340F82130EFF31081012383F368
:105870001088136813B11368013B1360136863B198
:1058800081F31088154B636000263046BDE8F8832D
:1058900046F040064FF0F20E1EE70E4A8020D3700D
:1058A000D070EDE7022808BF42F01002FF26D2B206
:1058B0005E70DA7143E7C869007A1040000200F4B4
:1058C000706040F00100EFE6FC6F044000600040B3
:1058D000101C0020000D04400008044055494353AB
:1058E0002DE9F04F9B46FF258024634B8BF8025037
:1058F0008BF80340614C1B6A2668614C9BF8005092
:10590000C3F302678BB0BE40C3F3023326FA03F33E
:1059100000910992A3FB0412CDE9021200266FF355
:10592000820506931B0ACDE907068BF80050204636
:1059300005930196099B834276DA9DF82030049303
:105940000027504B049ADD5DC5F34009C5F380057F
:1059500049EA050393425FD14B4B33F81780079B0D
:1059600003FB08F8069BB3FBF8F4661EFF2E53D822
:1059700004FB08F4824621E0059AB4FBF2F27F2A88
:1059800002FB03F354D9002BB8BFFF331B12A3F55E
:10599000C333A03B002BB8BF5B429A454ADC9BF85F
:1059A00000309DF804208BF8032043F00403A4EB9F
:1059B00008048BF80030002E3AD0013E2246E3174F
:1059C000DDE9020108F026FCA0F5C330A038009AFA
:1059D00000F5C333A033002ACED10028B8BF40421F
:1059E000824525DD274B9BF80110DA5D9BF80030DE
:1059F0008BF80260C2F3000464F3861369F30413A6
:105A000065F3C303C2F3C10262F301018BF80030F6
:105A1000009B8BF80110019301370D2F91D1089B4A
:105A20001BB3099B984223DC00200BB0BDE8F08F2C
:105A30005046F1E713498BF80260C85D9BF80010EF
:105A40000192C0F3000C6CF386119BF801C069F35E
:105A50000411C0F3C10065F3C30160F3010C9A4661
:105A60008BF800108BF801C099E70123089361E7D8
:105A700003200BB0BDE8F08F00E001409C1C00202B
:105A8000A08601008C1501009C150100F0B4EFF315
:105A90000383103B5BB203F1C001324A324C52F82F
:105AA00021006FF3104042F8210054F82300C2692E
:105AB0000369126992B10BB1F0BC7047026A937826
:105AC000446A03F07F0343F0040300219370C16034
:105AD000002CF1D08022F0BCFFF734BC026A002B0E
:105AE000EDD00678E6B1D48AC4F30424B4422DD2B2
:105AF0008578C16805F0030C654609E00F78D77317
:105B000001345B1B2944B442C0E903131ED223B302
:105B1000BCF1020FF2D10F8847F47E47D781EFE73F
:105B20008178C46801F00305022D0AD02578D5706C
:105B300001F003029B1A2244C0E90323002BBBD1CE
:105B4000BCE7258845F47E45D581F1E711796FF3EF
:105B5000C7111171002BAFD1B0E7117963F3C711F1
:105B60001171ACE700600040141C002030B583B018
:105B7000EFF30383103B5BB203F1C001554A564C6F
:105B800052F821006FF3104042F8210054F82340EE
:105B9000E369DB6873B1A36963B1636A0021C4E997
:105BA0000511002B70D02046012203B0BDE8304023
:105BB000FFF7C8BB22894FF6FF739A4220D0EFF35C
:105BC0001081012383F31088444B1A681AB94448A2
:105BD0004025C270C5701A6801321A6081F31088BE
:105BE00022894049130A1B0153FA82F251F82230EC
:105BF00023F0011323F4404343F0050341F822301E
:105C00002278236A002A41D0D98AC80613D01B8A79
:105C1000C3F308030193A369002B41D1636A2BB13D
:105C2000042201992046FFF78DFB22782AB1236ACE
:105C3000D98AC906E6D1BE221A7123894FF6FF72AE
:105C4000934221D01A0A120152FA83F2254951F8DF
:105C5000223023F0011323F4404343F0040341F8BE
:105C60002230EFF31082012383F310881B4B196855
:105C700011B11968013919601B681BB918498020D6
:105C8000CB70C87082F3108803B030BDA17801F0EA
:105C900003010229BBD05B790193A369002BBDD01E
:105CA000A278606902F0030201A908F09BFCD4E924
:105CB0000521A37803F003031A44C91AC4E9052196
:105CC00029B9636A1BB101222046FFF73BFB22780A
:105CD000ACE700BF00600040141C0020101C002036
:105CE000000D04400008044010B5EFF30384103C9D
:105CF0000B4B64B253F82400D0E90821937803F0E9
:105D00007B03937019B102220021FFF71BFBC03403
:105D1000044B53F824206FF3104243F8242010BDA5
:105D2000141C00200060004070B5EFF30384103CA9
:105D3000164B64B253F824000278036A3AB98278A9
:105D400002F00302022A02D05979C9B202E0198A8C
:105D5000C1F308011D79EDB2EE0605F0380204D555
:105D60001D7FED0758BF42F040021D79466A05F0DD
:105D7000C7051D710EB1FFF7E5FAC034044B53F8A7
:105D800024206FF3104243F8242070BD141C00201F
:105D90000060004070B5436A84B004460E46ABB163
:105DA00093E8070001AD85E807006168A26A0978F9
:105DB00019601E719A601846236A9847636A1BB17E
:105DC00095E8070083E8070004B070BD01AD2B46DD
:105DD000EBE700BF10B4EFF30383103B5BB203F1BA
:105DE000C001144A144C52F821006FF3104042F8DD
:105DF000210054F823305A69D9698A4206D2D3E97E
:105E00000240A8B1805CE07001325A61914202D038
:105E10005DF8044B70471A69002AF9D19A685DF859
:105E2000044B937803F07B0343F0040393707047B3
:105E3000E070E9E700600040141C002010B4EFF3AC
:105E40000383103B5BB203F1C001174A174C52F8B1
:105E500021006FF3104042F8210054F823305A69B2
:105E6000D9698A4206D2D3E90240D0B1805CE070A1
:105E700001325A619A698A4207D298681969407951
:105E8000541C9C618854D3E90621914206D19A683A
:105E9000937803F03B0343F0040393705DF8044BE5
:105EA0007047E070E4E700BF00600040141C002071
:105EB00010B5EFF30384103C64B20A4B53F824008E
:105EC0008268937803F0030393700121FFF762FF68
:105ED000C034054B53F824206FF3104243F82420BC
:105EE00010BD00BF141C00200060004010B5EFF38F
:105EF0000384103C64B20B4B53F8240083689A78F7
:105F000002F003029A70842219791A710421FFF7B2
:105F100041FFC034044B53F824206FF3104243F880
:105F2000242010BD141C00200060004003685B6941
:105F3000A3B190F82D2070B502F0FF056AB90446B0
:105F40009A6818689668238CA1692A46B047E26966
:105F500025620123626284F8333070BD704700BF50
:105F6000F0B5856B83B004460F4635B395E8030062
:105F70006E4686E803002368E16B5A6929602F7139
:105F80003AB194F82D1021B9936810681B699847AD
:105F900023689B6933B194F82D201AB19A68186868
:105FA00013699847636B28469847A36B1BB196E823
:105FB000030083E8030003B0F0BD6E463546DAE720
:105FC000EFF30383103B5BB2C033044A52F8231053
:105FD0006FF3104142F82310704700BF006000408B
:105FE000F8B5EFF30383103B5BB2C033624A52F85B
:105FF00023106FF3104142F82310EFF30383103B9B
:106000005BB25E4A52F8234021690B7B13F0010317
:106010002CD194F82C2094F82A00904216D094F8B1
:106020002D300BB1022A43D02046FFF77FFF2369B2
:1060300094F82820DA7094F82B2094F82C30013A48
:10604000013384F82B2084F82C30F8BD94F83320E9
:1060500002F0FF054ABB236ABBBB94F82E3053B352
:1060600052220123CA7284F83030F8BD94F82D30E2
:106070009BB194F8313083B9636AA2694979D154EC
:10608000D4E9082394F82E10013A0133C4E9082317
:10609000A1B923695422DA72F8BD002001225423E9
:1060A000206284F82F20CB72F8BD84F83330F8BD1D
:1060B0005223CB72F8BD5423CB72F8BD2269522112
:1060C0000123D17284F83030F8BD94F82D20002AD5
:1060D00032D094F83120002A37D0226884F8315029
:1060E0005069002841D09269002A3ED0E669022E0C
:1060F0003BD9936810689F68A269B31EF4268E701E
:106100009BB22946B8472268E369526991681068D2
:106110008E68023B9BB22A462946B047E369216953
:10612000023B0220C4E90803012284F83320002343
:10613000FF228B72CA70F8BD626AA569501C013BD0
:10614000AA5CC4E90830CA70F5E7636AA2694979B4
:10615000D154D4E90832013B0132012B2169C4E951
:10616000083204D0FF22CA70E5E7012BDFD82023D4
:10617000FF228B72CA70DEE700600040141C002012
:1061800038B5EFF30383103B5BB2374A52F8234034
:106190002269D37A6FF3C303D37294F82F30002BA4
:1061A00039D103F0FF0094F82A1094F82C3099426A
:1061B00020D1236A8BB994F82D1094F8300000296F
:1061C0000CBF03210221C8BBF023D372937803F0E4
:1061D000CF0393702046FFF7C3FEEFF30383103B1A
:1061E0005BB2C033214A52F823106FF3104142F8DA
:1061F000231038BDB3B9012924D094F82900002117
:10620000D172D07094F82B200133013A84F82C30ED
:1062100084F82B20E1E7F0232046D3720121FFF719
:106220009FFEDAE794F82D5005F0FF0145B1022BEF
:10623000E5D194F8290040F00100E0E7D372C9E706
:106240000846DCE72046FFF771FE94F82A30012B60
:1062500005D194F82800226994F82C30CFE7226900
:1062600094F82C30C9E700BF141C002000600040E7
:10627000F0B583B0EFF30384103C64B2144B53F8D1
:106280002450EF68BFB16A682B6992F90D20121B88
:1062900018BF0122CBB193E803006E4686E80300E5
:1062A000696959601A701846B8472B691BB196E89E
:1062B000030083E80300C034064B53F824206FF337
:1062C000104243F8242003B0F0BD6E463346E7E7A2
:1062D000141C002000600040EFF30383103B5BB20E
:1062E0000649074A51F823100120C033087252F8BA
:1062F00023106FF3104142F823107047141C002044
:10630000006000400B0A1B0153FA81F1034B53F864
:106310002130C3F34003137000207047000804408D
:10632000C8B20123834098B252B10023090A49013F
:1063300001F1804101F5802103438B60002070470B
:106340001B041046F2E700BFF8B500283BD00968EF
:106350001E4F4FF0000C01EBC00066464FF0010EDF
:106360008D8840F2024295424FF000030BD10C6839
:106370000EFA03F204F0B854D2B2B4F1807F0CBF2D
:10638000164342EA0C0C0133032B06D037F81320D6
:106390009542ECD00133032BF8D108318142DFD193
:1063A0006FEA0C0C5FFA8CF4012002F0A9F8084B9C
:1063B00093F8BB241643264083F8BB640120BDE854
:1063C000F84002F06DB80646FF24EDE7B81501006D
:1063D00000E00140F0B585B004AB02A843F80C0D15
:1063E00001260C46304619461546ADF80C4002927F
:1063F000ADF80060FFF7A8FFEFF3108186F3108877
:106400001B4B1A681AB91B484026C270C6701A681E
:1064100001321A6081F31088200AEA03E4B24FEADD
:1064200000100BD50119144A52F8217025F480365A
:106430006FF3104742F8217042F8216020440E4A61
:1064400042F82050EFF31082012181F3108819687F
:1064500011B11968013919601B681BB90549802001
:10646000CB70C87082F31088002005B0F0BD00BF6B
:10647000101C0020000D044000080440F0B5C36A61
:1064800085B005460E4617469BB193E8070001AC60
:1064900084E807002A6B1A605F601E721846AB6AB8
:1064A0009847EB6A1BB194E8070083E8070005B042
:1064B000F0BD01AC2346EDE770B50123856880F897
:1064C00020300226B323EB7180F821606B79C2691A
:1064D00004466FF300036B710D46FFF7CFFFA3680F
:1064E000DE705A7942F001025A7194F82120012A93
:1064F00005D094F821200AB9052D04D070BD042DD3
:1065000001D0082DF5D194F82320002AF6D194F873
:1065100021201AB95A7A02F0F3025A72BF210122DD
:10652000D97184F8232070BD836810B4A0220024A0
:10653000DA7180F8204080F822405A7964F3000232
:106540005A7190F824206AB9DF249F221C701A70B7
:1065500000240223C26980F82130C4615DF8044B35
:10656000FFF78CBF5C72F3E730B583B0EFF30383C2
:10657000103B5BB2C033424A52F823106FF3104114
:1065800042F82310EFF30383103B5BB23D4A52F80D
:10659000234094F82220A368AAB9012284F822207B
:1065A000DA7CD2B28DF805209DF8052012F0010F9B
:1065B0005A7A14BF02F0F70202F0F3025A72AC22C8
:1065C000DA7103B030BD94F820204AB91B7A13F079
:1065D000080F0CBF042108212046FFF76DFFA368B8
:1065E000226962B1A1698A421DD0E268DB7C481C45
:1065F000A0615354E3690133E36103B030BDD97C3A
:10660000C9B28DF806109DF80610197941F01001F5
:106610001971197941F008011971197962F304119E
:10662000197103B030BD022584F821505979E2690F
:106630006FF30001597120460621FFF71FFFA36881
:106640002169DD705A7942F001025A7191B9DA7C00
:10665000D2B28DF807209DF807201A7942F0100277
:106660001A711A7942F008021A711A7961F3041248
:106670001A71A6E7A269E168DB7C501CB8E700BF8D
:1066800000600040141C002038B5EFF30383103B7A
:106690005BB2C033224A52F823106FF3104142F824
:1066A0002310EFF30383103B5BB21E4A52F82340E2
:1066B00094F8203093B194F8213003F0FF0263B9CD
:1066C000A3692069A16898420DD0E269E0680132AF
:1066D000C05C88740133C4E9063238BD0521204608
:1066E000FFF7EAFEE7E723680D4893F90E3003F160
:1066F000C004002B50F8245062F3104540F8245099
:1067000009DB5A09603203F01F030120064C00FA2E
:1067100003F344F82230CB7943F04003CB7138BD0A
:1067200000600040141C002000E100E038B5EFF3E9
:106730000383103B5BB2204A52F82340A1680B79D7
:10674000C3F38003BBB1CB796FF38613CB71C02346
:1067500001E0013B02D0CA795206FAD4EFF3038379
:10676000103B5BB2C033154A52F823106FF310414F
:1067700042F8231038BD022584F821504879E26997
:1067800063F30000487107212046FFF777FEA168F8
:10679000CD704B7943F001034B7194F82130002BFD
:1067A000D1D1A369E269E0680132C05C8874013329
:1067B000C4E90632C7E700BF141C00200060004097
:1067C00000B583B0EFF30383103B5BB2214A52F86C
:1067D00023008268537ADBB299072FD113F00C0F94
:1067E0001FD0012380F8243090F82130012B2ED0C7
:1067F000026983699A4228D9C369013BC3610321B5
:10680000FFF792FEEFF30383103B5BB2C033124AF3
:1068100052F823106FF3104142F8231003B05DF8D3
:1068200004FBDB06EED5D37CDBB28DF807309DF898
:106830000730D37903F0EF03D371E3E7002380F847
:1068400024300121FFF770FEDCE70321D8E70221A5
:10685000D6E700BF141C00200060004030B5836BF9
:1068600083B004460A46ABB193E803006D4685E861
:106870000300E16B19601A711846636B9847A36BAC
:106880001BB195E8030083E80300002384F82B3054
:1068900003B030BD6D462B46EBE700BF2DE9F04F4E
:1068A000D0F800800469D8F82450D8F804A095F8EE
:1068B00000E095F801B0DFF868C1DFF86891DFF813
:1068C00068811F2626705F27DF26277026702F79A4
:1068D0009DF9286047F0E0072774EF7847F0E0075C
:1068E0006774AF789DF92450BEF1010F4FEA071786
:1068F0000CBF4FF0050E4FF0040E07F070074EEA84
:106900004B0E47F00807A7700CEB060BCA450CBFEF
:106910004FF0F7094FF077095FFA8EFE4FF0000A4B
:10692000B327090184F803E0C9B284F8059006F1A1
:10693000C00E84F806A0E771384F8BF8001348F8B2
:10694000260057F82EB04FEA56194FEA89096AF324
:10695000104B09F1604947F82EB009F561494FF035
:10696000010E06F01F060CEB030B0EFA06F6C9F833
:106970008061C9F8006003F1C0098BF800135E095B
:1069800048F8230057F829B0B60006F1604606F52E
:10699000614603F01F036AF3104B0EFA03F347F846
:1069A00029B00CEB0509C6F88031336005F1C0034E
:1069B00089F800136E0948F8250057F82390B600AF
:1069C00006F16046944406F561466AF3104905F005
:1069D0001F0547F823900EFA05F502F1C009C6F825
:1069E000805135608CF8001348F8220057F82910C0
:1069F00053099B0003F160436AF3104147F82910E3
:106A000003F5614302F01F020EFA02F29F20C3F861
:106A100080211A602070BDE8F08F00BF0060004048
:106A200000E100E040420F00141C0020C36902692D
:106A300013B990F82C308BB130B5044683B0A1B9AE
:106A400094F82630A16984F828300023E36184F8A3
:106A50002C30B3232162D37103B030BD90F82B30BA
:106A6000002BE9D1B323D371704700680023D371A1
:106A700090F9115090F90E20417B90F90F3001955B
:106A800090F9100000902046FFF708FF2269D7E731
:106A900010B483B0EFF30383103B5BB2C033474ABB
:106AA00052F823106FF3104142F82310EFF30383E1
:106AB000103B434A5BB252F8233093F82D10DA6949
:106AC000B1B998691969012803D9087940F04000E3
:106AD0000871012A27D0CA7CD2B28DF80720012282
:106AE0009DF8071083F82D2003B05DF8044B704724
:106AF000002AF9D0032A1FD0022A23D0012A2BD042
:106B000019691A6A5869C97C8154D3E9072101318E
:106B1000013AC3E90721002AE6D119690B7962F32A
:106B200086130B71E0E70A7942F010020A710A79C4
:106B300042F008020A71CEE719690A7942F0400270
:106B40000A71DEE719690A7942F010020A710A79BE
:106B500042F008020A71D4E793F82A1029B31968A1
:106B6000184C91F90F104809203001F01F0102FA6A
:106B700001F144F82010BFF34F8FBFF36F8F1969F5
:106B8000C87940F08000C871087940F010000871A1
:106B9000087904246FF3C30008714C7048796FF3CF
:106BA0000000487183F82C20ABE719694A7A082065
:106BB00002F0F7024A724870A3E700BF006000408D
:106BC000141C002000E100E010B4EFF30383103B3D
:106BD0005BB2C033344A52F823106FF3104142F8CD
:106BE0002310EFF30383103B304A5BB252F823309B
:106BF00093F8272092B193F8260093F828100328E1
:106C00003DD0186993F8244084740131013A83F827
:106C1000281083F827205DF8044B704793F829204B
:106C2000002AF8D1DA69186982BBC2796FF3C712FA
:106C3000C271C02201E0013A02D0C179C909FAD17A
:106C40001B68194A93F9103003F1C001002B52F868
:106C500021406FF3104442F8214009DB5A096032A9
:106C600003F01F030121124C01FA03F344F8223010
:106C7000C3795DF8044B43F04003C37170470229A8
:106C8000BFD193F830000028C5D0BAE7196A5C6913
:106C9000013A645C84740131C3E90721002AC4D03D
:106CA0005DF8044B704700BF00600040141C0020DA
:106CB00000E100E030B4EFF30383103B2A4A5BB2FB
:106CC00052F8233093F829201AB193F82720012A8B
:106CD00045D0DA69CAB11969CB796FF38613CB71E4
:106CE000C02301E0013B02D0CA795206FAD4EFF387
:106CF0000383103B5BB2C0331C4A52F823106FF37E
:106D0000104142F8231030BC704793F82A10F1B1BB
:106D10001968174D91F90F1048092030012401F02E
:106D20001F0104FA01F145F82010BFF34F8FBFF3A4
:106D30006F8F1969C879042540F08000C8714D70C3
:106D4000487962F30000487183F82C40C4E7196960
:106D50004B7A082203F0F7034B724A70BCE793F8B2
:106D60003020002AB5D1B6E7141C00200060004096
:106D700000E100E038B5EFF30383103B5BB2344A27
:106D800052F823402269537ADBB2E021DD065172CA
:106D900003F003011AD55078400637D4012529465F
:106DA000204684F82B50FFF741FE29462046FFF786
:106DB00055FDEFF30383103B5BB2C033254A52F815
:106DC00023106FF3104142F8231038BD0029E5D19C
:106DD00019070FD594F82B30002B33D194F82910D4
:106DE000B323002914BF02210321D3712046FFF7EA
:106DF00035FDDEE794F82C100029DAD05B07D8D5F2
:106E000094F82B300121002BF0D1E7E70029C5D100
:106E100051784D06C1F38010DAD5236884F82B0031
:106E2000596A537A0978012903F0F7030CBF03214B
:106E30000221082053725070D170537943F001033E
:106E40005371B6E700212046FFF7F0FD0121CDE7A1
:106E5000141C0020006000402DE9F04191F902402F
:106E6000194EA300D1E9025203F1804303F5C04358
:106E70000027D3F800C30471C3F80073C0E90252BD
:106E80000D78457191F80480CA7891F805E077553E
:106E900042EA081242EACE12D2B2BC427255C3F89C
:106EA00000C30BDB4B78094904F160421B0102F57A
:106EB0006142DBB282F8003341F82400044B0360E6
:106EC0000020BDE8F08100BF00600040141C0020DD
:106ED0005543490030B490F904200D4802F1C00434
:106EE000530950F824509B006FF3104503F16043A1
:106EF00040F8245003F5614302F01F02012101FA1A
:106F000002F20020C3F880211A6030BC704700BF35
:106F10000060004070B582B0EFF30384103C164B64
:106F2000164964B253F82420567995688B5D03F0B6
:106F30000303032B0FD0C03451F824306FF31043F8
:106F400041F824302DB102A8D36840F8083D0196DD
:106F5000A84702B070BD2DB102A8D36840F8083D23
:106F60000196A847C034054B53F824206FF3104214
:106F700043F8242002B070BD141C002000600040C3
:106F80000346D3E902230020936070470346D3E908
:106F900002230020536070470346D3E902230020F8
:106FA000D36070470346D3E90123D269F0B4D2E934
:106FB0000347D2E90115566945F0004544F0004405
:106FC00041F000425D6100209C611A615F629E6237
:106FD000F0BC7047002824DB30B400F1604303F5B7
:106FE0006143104D104C0901C9B283F8001345F8F4
:106FF000202000F1C001430954F821509B006FF399
:10700000104503F1604344F8215003F5614300F05B
:107010001F00012202FA00F0C3F8800130BC1860A2
:1070200070477047141C002000600040F0B5836971
:1070300085B005460F4616469BB193E8070001ACA4
:1070400084E80700EA691A601F719E6018466B6940
:107050009847AB691BB194E8070083E8070005B0C7
:10706000F0BD01AC2346EDE7430910B4203300F036
:107070001F0408490122A24041F82320BFF34F8F8B
:10708000BFF36F8F044B5DF8044B002243F82020C0
:10709000704700BF00E100E0141C002038B54368D1
:1070A000044693F91200DD69002801DBFFF7DCFFDD
:1070B00095F92400002801DBFFF7D6FF95F925009C
:1070C000002801DBFFF7D0FFAB6A2BB193F9010079
:1070D000002801DBFFF7C8FFD4E902210023236069
:1070E00018469160536338BD30B40478486E032C61
:1070F00098BF013042B1824206D2032C98BF02F100
:10710000FF321A6030BC7047029D496BED0754BFD7
:1071100001F01F01C1F30441032C09D9090981F0D1
:10712000010172B901B180B902225A6030BC7047C6
:1071300001F00C01A1F10401B1FA81F14909002A21
:10714000F0D0824201D30029EED103225A6030BC34
:10715000704700BF2DE9F0470B7C41600D460121CF
:1071600001FA03F2C260920716BF00220174027492
:1071700003F58003D5E9051203F5F0631B02002730
:1071800084B0044683604161C0E90672EE69EFF3A2
:107190001083012282F31088874A287CD168012855
:1071A0008CBF6FF040006FF020000140D160D268CA
:1071B00083F310882A78287A6B68A1684FF4254CED
:1071C000032AC1F800C04FEAC050CF6203F1FF3E6E
:1071D000CF638F6400F0D88084BF40EA02409E46AF
:1071E0004FF0004CC862D6F81880F069C1F810C0A2
:1071F0000027C1F814C0C1F818C04FF0FF3C4F621F
:1072000003978F62CDF808C0C1F81C800862D6F8D9
:107210002C80C1F868E0C1F864E0002A40F0848066
:107220005B0863440293C64601204FF0030C4B6594
:107230008B65BEF1000F15D1337883B1777848F4B0
:107240008078022A48EA87134FEA071800F0A180E5
:1072500040F2A180032748EA030848EA0708B37808
:10726000002B7CD1B76A002F00F08A80BB7897F89A
:1072700003A097F804901B0643EA0A73D7F808A006
:1072800043EA09438B63C1F88CA0BAF1000F61D0C7
:107290000123BEF1000F09D197F81C9097F81BA0AD
:1072A0004FEA496949EA4A2948EA0908C1F8883099
:1072B000BEF1000F08D196F8213096F820E05B0768
:1072C00043EA4E3348EA03084FF4AA03012A0B6449
:1072D00002D10023CB640B65E368CB60C1F8348036
:1072E000C1F830C00863697C95F912002246FFF7A7
:1072F00071FE224696F8221096F92400FFF76AFEE6
:10730000224696F8231096F92500FFF763FE2FB169
:107310002246397897F90100FFF75CFE274B23607E
:10732000002004B0BDE8F087012A3ED9EA68606811
:10733000009702ABFFF7D8FE039FA168029BD6F827
:107340002CE02A78380440EA076040F0030C40F053
:1073500001006CE7FB68003318BF012399E7F77859
:107360003B0143EA8713022A43F480730FD017D9F5
:1073700003273B43B76A48EA0348002F7FF476AF00
:107380008F63C1F8887093E740F4803028E70927BD
:10739000EFE709275FE7002F14BF092706275AE701
:1073A000002F14BF09270627E3E7012063460246A2
:1073B000C6464FF0030C3AE7FC6F044054504700B8
:1073C000F0B4EFF30383103B5BB203F1C001164A44
:1073D000164C52F821006FF3104042F8210054F887
:1073E000230044682478012C15D1D0E90265B560EA
:1073F0000025B564F564356552F821600C4F65F3DE
:1074000010465D09603503F01F0304FA03F342F8E8
:10741000216047F82530436923B100221146F0BCB2
:10742000FFF704BEF0BC704700600040141C002051
:1074300000E100E0F0B4EFF31083012282F3108842
:107440000D4CA56825F48045A560A46883F31088D9
:107450000A4D0B4F00232A4203F104041CBFCE5CEB
:1074600027F824600133172B4FEA4202F3D1054B72
:107470000360F0BC00207047FC6F0440FFD307009E
:1074800000100440434C45000431024B002023F817
:107490002120704700100440024B80221A70002007
:1074A000704700BF0010044030B4D0E9015082B0F2
:1074B0006D680191297800928A0002F1804202F5FC
:1074C000C042AD7A0024C2F880420477C2F88052EC
:1074D0004477019A0AB1019A0260009A0AB1009AAF
:1074E0004260028A920B14BFC3608360012303775A
:1074F000002002B030BC70470901836841F00101EF
:10750000C9B25977002070478368002058777047C8
:10751000836801221A770020704700BF10B4D0E9B9
:10752000013158680378847A9B0003F1804303F5A6
:10753000C0430022C3F8802210460A77C3F8804275
:107540004A775DF8044B704783684FF480324FF4FC
:10755000806088600A601A8AD86848609B689BB21D
:10756000CB60930B04BF4FF6FF738B600020704716
:1075700070B4D0E901355B68114E1978DC68A03130
:107580000246002046F821002877A4B193F90110A3
:107590000C4E4C092034012501F01F0105FA01F1C0
:1075A00046F82410BFF34F8FBFF36F8F064993F94E
:1075B000013041F823000020106070BC704700BF0C
:1075C0000060004000E100E0141C00202DE9F047BD
:1075D000D0E901235668CC78327896F80AC08F78C3
:1075E000920002F1804202F5C0420025C2F88052AA
:1075F0001D77C2F880C2A209C4F301195D77920316
:10760000CD89C7F3810E42EA092204F0C0094FEA8E
:107610008E1EC4F38108B9F1800FADB24EEA883EE8
:1076200065D014F0400451D142F40052BCF1000F77
:1076300001D042F00102D6F80C80B8F1000F33D02F
:10764000BF0651D5B9F1C00F0CBF4FF010084FF075
:107650001C0896F9017096F802C0DFF8A8A007F19F
:10766000604909F561494FEA0C1C5FFA8CFC89F806
:1076700000C34AF8270007F1C00CDFF88C907809A6
:1076800059F82CA0800000F160406FF3104A49F8CF
:107690002CA000F5614007F01F074FF0010C0CFA19
:1076A00007F7C0F88071076092B21FFA8EFEA3F848
:1076B00014E01A824A681A608968726859609D608D
:1076C000DC609A6183F81380BDE8F0878C8945EA15
:1076D0000545B9F1400F25F0FC25A4B2A6D1C7F3AA
:1076E000001842EA0832A1E74FF01008B1E78C8990
:1076F00045EA0545C7F3001825F0FC25A4B242EA87
:10770000083293E7141C00200060004070B54B68FD
:1077100041601B7803F1012340339B0104468360E1
:10772000EFF31083012686F31088084AD56925F403
:107730008005D561D26983F31088054B09681E70F6
:10774000FFF744FF034B2360002070BD00E00140C1
:107750000052004043414D4410B50446FFF736FF48
:10776000A36801221A77002010BD00BF10B582B0B7
:10777000EFF30383103B5BB203F1C0010C4A0D4CE5
:1077800052F821006FF3104042F8210054F82340D2
:1077900063685B6802A81A6940F8042DDB689847A3
:1077A000A368DA680AB101221A7702B010BD00BFDF
:1077B00000600040141C00201C4B30B4C3600B78E8
:1077C00003F001034370EFF31083012585F3108864
:1077D000174AD46824F48014D460D26883F31088E4
:1077E000EFF3108485F310884378CBB1C268137926
:1077F0006FF3C713137184F310884A684B78D278FB
:10780000C4680C4DD201D2B2DB016271DBB201223D
:10781000A371E2710B7803704560002030BC7047A3
:10782000C5682A7963F386122A71E4E700E005400F
:10783000FC6F044000434144C3684278002023F8B1
:1078400012107047EFF31082012383F310884378FE
:10785000C1683BB10B7943F080030B7182F3108850
:10786000002070470B7943F040030B7182F31088BE
:1078700000207047EFF31081012383F310884378D1
:1078800043B1C26813796FF3C713137181F3108882
:1078900000207047C068027963F38612027181F399
:1078A00010880020704700BF10B40346EFF3108427
:1078B000012282F3108842787AB1C26811796FF39D
:1078C000C7111171117A6FF3C711117284F3108807
:1078D000002058605DF8044B7047C168087962F376
:1078E00086100871087A62F386100872EEE700BF0E
:1078F0002DE9F0430F688BB08846814614461FB3CC
:107900003D460FCD6E460FC60FCD0FC695E803005E
:1079100086E803000FCC3E460FC60FCC0FC694E896
:10792000030085E803003846C847D8F8004044B152
:107930006D460FCD0FC40FCD0FC495E8030084E84A
:1079400003000BB0BDE8F0831746ECE770B58AB0D2
:10795000EFF30383103B5BB2C0332E4A52F823107F
:107960006FF3104142F82310EFF30383103B5BB237
:10797000294A52F8235000212822684606F056FE74
:107980006C6894F84D280021D2B2ADF8042084F838
:107990004D18B4F84238C3F30013B3B142F02002DB
:1079A0000223ADF8042094F8532884F8533894F84F
:1079B000523803F01F03D2B2E01884F8532890F82D
:1079C000202861F3820280F820282A686E6A1268F3
:1079D000009205F120016A46E86903930496FFF7D7
:1079E00087FFB4F84238DB0611D52B681A69127D7F
:1079F0006AB193F91530002B09DB5A09403203F0C4
:107A00001F030121054801FA03F340F822300AB0B0
:107A100070BD00BF00600040141C002000E100E0C9
:107A20002DE9F0418AB0EFF30383103B5BB2C03322
:107A30003F4A52F823106FF3104142F82310EFF33E
:107A40000385103DEDB23B4B6EB2002253F8267019
:107A5000D7E900E494F85318DEF8103084F853287E
:107A600094F852C81B7B0CF01F0C0CF12002C9B219
:107A7000100184F853182158205843EAD07303F0BA
:107A80000103C1F380708DF819008DF81830002BB8
:107A90004AD1C1F38A41059104EB02129388C3F3E2
:107AA0000303D8B208288DF81A303AD908208DF887
:107AB0001A0008AA002304EB0C1808EB0301013399
:107AC00091F8061202F8011B8342F6D3DEF800207B
:107AD000009204EB0C03442283F820284FF48061C9
:107AE00000227B6A0792ADF804106A4607F1200174
:107AF000F8690493CDF80CC0FFF7FAFEB4F84238E9
:107B0000DB070BD5002E09DB7609403605F01F0593
:107B10000123094A03FA05F542F826500AB0BDE8E8
:107B2000F0810028C5D1D1E721F060410591B3E78C
:107B300000600040141C002000E100E0F0B58BB0B4
:107B4000EFF30383103B5BB2C033224A52F8231099
:107B50006FF3104142F82310EFF30383103B5BB245
:107B60001D4A52F82350D5E900340126196894F8CB
:107B700053286F6A84F8536894F85238009103F0E0
:107B80001F03E118D2B284F85328002281F820287C
:107B900081F820284FF40062ADF8042005F120019F
:107BA000E86903936A460497FFF7A2FEB4F84238E7
:107BB0009B070CD52B6893F91730002B07DB5A096C
:107BC000403203F01F0305499E4041F822600BB08C
:107BD000F0BD00BF00600040141C002000E100E088
:107BE0000B7C03F1401303F500631B02F0B4044661
:107BF00041608360EFF31082012383F310883B48D8
:107C00000E7CC568C6F10306B34025EA0303C360D2
:107C1000C36882F31088A26800231372137AC3F337
:107C20004003002BFAD1CD690E7AE87895F800C0B0
:107C300093722F7900F00700BCF1000F43D1002EA2
:107C400048D14B681773C0B26768002595735072AE
:107C50009672E3603F7C264E91F9120046F8273079
:107C6000013B9BB2A842138023DB4B7CDFF88CC026
:107C7000204E00F1604202F561421B01DBB282F846
:107C8000003300F1C00743094CF820409B0056F830
:107C900027C003F1604303F5614300F01F00012298
:107CA00002FA00F065F3104C46F827C0C3F88001D3
:107CB0001860D1E90502104B20610020C4E90502DB
:107CC0002360F0BC7047BCF1500F09D04CEA0000B3
:107CD000C0B2B6E786F0020640EA06106646B0E794
:107CE00040F05000C0B21E46ABE700BFFC6F04403E
:107CF0009C0400200060004054474100141C0020F8
:107D00008268117A01F00101137AC3F340039942AA
:107D1000FAD143681978012903D0F12313720020A6
:107D2000704710B4C1681C7C05484B1E9BB2138081
:107D3000F12340F82410137200205DF8044B7047C3
:107D40009C0400208268117A01F00101137AC3F3C8
:107D500040039942FAD1F02313720020704700BF0C
:107D60008268117A01F00101137AC3F3400399424A
:107D7000FAD1C368013B9BB213800020704700BF5B
:107D8000D0E90223013BF1219BB213800020117244
:107D9000704700BF10B48268117A01F00101137AB4
:107DA000C3F340039942FAD1436893F91230F424A3
:107DB000002113F1210F1472117315D08B4210DBC7
:107DC0005A09203201210B4C03F01F0301FA03F37F
:107DD00044F82230BFF34F8FBFF36F8F436893F99E
:107DE0001230054A42F82300002303605DF8044B7B
:107DF0001846704700E100E0141C0020F0B585B083
:107E0000EFF30383103B5BB203F1C0011B4A1C4C30
:107E100052F821006FF3104042F8210054F823403B
:107E2000D4E901120978137A0129DBB204D103F0F5
:107E3000F003F421117213722769BFB16569D5B1DE
:107E400095E8070001AE86E807009B0644BF0023C3
:107E50002B71A3692B602846B84763691BB196E86C
:107E6000070083E80700A268137ADBB203F00F0370
:107E7000137205B0F0BD01AE3546E6E70060004084
:107E8000141C0020034600201A689B8A1380704748
:107E900003681B88C3F3C0330B700020704700BF1A
:107EA00003681031002033F811301380704700BF91
:107EB0002DE9F043D0E90032D1E90064D1F808E0BF
:107EC000D2F814C026F0405724F040521FFA82F82E
:107ED0002EF040551FFA87F93443A3F80490120C92
:107EE000A3F814801FFA85F94FEA17482D0C14F0F7
:107EF000405FA3F80890A3F80680DA825D8156D12E
:107F0000CC68002C00F090802289150522D5D4E998
:107F100000E5B4F80A90B4F80C80A3F89020A3F818
:107F20009C90A3F89E801FFA8EF9CEF30B48A3F81D
:107F300094904FEA1E7EA3F896801FFA85F9C5F348
:107F40000B482D0F83F892E0A3F89890A3F89A803D
:107F500083F8935095051AD49CF80340098AA3F836
:107F60009020A3F8801064B11A88818A92B222F01E
:107F70001F02B7FA87F71F32D21B92B211431A8041
:107F800081822A4BC0E903360020BDE8F083A57C3E
:107F900094F81390B4F80E80B4F810E045EA0904A0
:107FA00083F8A640A3F8A880A3F8AAE0D4E7204D60
:107FB000204A2D6A1268DFF88080C5F3026902FA50
:107FC00009F2C5F30215EA40A8FB02529509DFF851
:107FD0006C8041F2883202FB05F2A8FB0252920C3F
:107FE0000132072A38BF072214F080550AD01EF04C
:107FF000805F5FFA82F840F2011583F8DE8008BFE7
:108000004FF48075A40009D5D2B245F400751EF076
:10801000005F83F8DF2018BF45F00205CC68ADB2E1
:108020005D82002C7FF470AF224695E743444152B5
:1080300000E001409C1C0020D34D621083DE1B43F6
:1080400030B400F1604303F56143104D104C090159
:10805000C9B283F8001345F8202000F1C00143099C
:1080600054F821509B006FF3104503F1604344F82E
:10807000215003F5614300F01F00012202FA00F0D5
:10808000C3F8800130BC1860704700BF141C00208A
:1080900000600040430910B4203300F01F04084979
:1080A0000122A24041F82320BFF34F8FBFF36F8F0F
:1080B000044B5DF8044B002243F82020704700BFBA
:1080C00000E100E0141C002038B54368002204469B
:1080D000826093F906005D69E260904202DBFFF77F
:1080E000D9FF636893F90700002801DBFFF7D2FF8F
:1080F00095F90600002801DBFFF7CCFF95F9070092
:10810000002801DBFFF7C6FF2368002018821880D3
:10811000EFF31082012383F31088646805492488F3
:10812000CD68C4F11004A3402B43CB60CB6882F32D
:10813000108838BDFC6F04400A882DE9F8430546D5
:108140000C464E694879C968A961520221692962C1
:1081500002F1804202F5B8220021E961A1782A608B
:1081600032796C600302920743F04003F27843EAED
:10817000413348BF43F48063002A6ED043F4207338
:10818000022808BF38499BB208BF31F82200AB82F1
:1081900018BF00202279E17896F801E03778D20301
:1081A00042EA410242EA4E1EEFF3108C012181F3B4
:1081B0001088DFF8BC802288D8F80C90C2F1100239
:1081C00001FA02F229EA0202C8F80C20D8F80C20C1
:1081D0008CF3108896F804C02A6847F6FF581FFAF7
:1081E0008EFE03EA08031CF0020F13801082A2F82F
:1081F0000EE0177309D04CF0030C82F88AC00846D1
:1082000000F0F0F82A6896F804C094F9060082F8A5
:108210008AC0002803DB2A46217AFFF711FF94F970
:108220000700002803DB617A2A46FFF709FF96F969
:108230000600002803DB2A46317AFFF701FF96F992
:108240000700002803DB717A2A46FFF7F9FE0020B9
:10825000064B2861AB60BDE8F883002890D143F459
:1082600000439BB2AB8295E7E415010043444152C1
:10827000FC6F04400C4A92F8363063B10A4A92F817
:10828000A030D906FBD4084982F8A00091F8A030AC
:10829000DB06FBD4704792F83C30DB07EED492F853
:1082A0003C30DB07F7D5E9E700E00140064B074922
:1082B00093F826001A6A51F820300549C2F3026289
:1082C000D3400B60704700BF00E001404002002037
:1082D0009C1C002070B5374C374B3848384A6260D8
:1082E000384900224AF20355A3F8FE53A0F80021B2
:1082F00021604FF4004193F82600E2606261A160C2
:108300002161196A54F820202F4DC1F30261CA403F
:10831000082009212A6083F8130483F8A21093F837
:108320008024002A3BD0244B002083F8810483F86A
:10833000800493F8A030002B39D11F4B002283F822
:10834000362093F83C20D207FBD5012100201F4A9C
:1083500083F8311083F826001A6293F82620186AF1
:1083600054F82220154CC0F30260C2402A60042653
:1083700084224FF4254083F83E6083F83E2083F842
:10838000D0102246A3F8FE03A4F80411B2F8043179
:108390009BB2002BFAD10123A2F8003170BD01215C
:1083A00083F8801440F2C44000F01CF8BBE7FFF7EC
:1083B00061FFC2E74002002000E0014000C0014030
:1083C00000127A00006CDC029C1C002000010110ED
:1083D000704700BF00BEFEE7A0F101000028FBD1FE
:1083E000704700BF144B70B401FB00F14FF47A7674
:1083F0001B681248B0FBF3F0A1FB064500234FF0C9
:10840000FF32AB4208BFA24206D3B4FBF0F08008B3
:1084100080B170BCFFF7E0BF8000B1FBF0F0A0FBC3
:1084200006018B4208BF8242F2D24FF0FF3070BC8F
:10843000FFF7D2BF70BC70479C1C002000CA9A3B5B
:108440000B4B70B5B3F840510A4E0024ADB225FA7B
:1084500004F3DB07E0B203D556F8243003B19847A4
:108460000134102CF3D1024BA3F8305170BD00BF82
:1084700000600040D01B0020074830B4074D00F1D9
:10848000200403461A1A13F8011BC032A34245F810
:108490002210F7D130BC7047A91F010000600040D6
:1084A000EFF31081012383F31088124B33F810206F
:1084B00092B22AB133F81020013A92B223F8102078
:1084C00033F810309BB28BB90B4A10B40B4CB2F896
:1084D000FE3334F8100043F4254323EA0003A2F8E6
:1084E000FE3381F310885DF8044B704781F31088E8
:1084F000704700BF941C002000E00140F01501000F
:1085000030B4EFF31081012383F310880C4A32F862
:1085100010309BB253B90B4C0B4DB4F8FE3335F809
:10852000105043F425432B43A4F8FE3332F81030A7
:1085300001339BB222F8103081F3108830BC7047B1
:10854000941C002000E00140F01501000C4A08B521
:1085500013684BB1033020F003000A4918448842E5
:1085600005D81060184608BD074B1360F2E706F007
:1085700011F80C2303604FF0FF33184608BD00BF0D
:10858000A4040020007B0020A81C002000BE70472F
:1085900008B500F005F8FCF750FCFEE7704700BF97
:1085A00070B5434A434B444C4FF470054AF20250B5
:1085B0000121C2F8885082B09460A3F8FE031A46E5
:1085C00083F81F1492F8B134DB06FBD500204FF47A
:1085D00025460446A2F8FE63FFF7E0FFFFF77AFEA8
:1085E0008DF8074001209DF80730FFF789FFEFF372
:1085F0001082012585F31088304B996821F00041E5
:108600009960996882F310882D4A1168C1F30001BE
:108610008DF807101168C1F300018DF8071012687A
:10862000C2F300028DF80720EFF3108285F3108863
:10863000996841F0004199609B6882F31088284650
:10864000FFF72EFF2846FFF7A9FF1E4B1E499C800F
:108650001E801E4E9E601E481E4E1F4ADE604FF456
:108660008056A1F82061121A9D80214605F0DEFF98
:108670001A481B4A1B491C4D121A05F0B3FF1B4B2D
:108680005B1BA3424FEAA30605DD013455F8043B0A
:108690009847A642F9DCFFF709FE0220FFF77EFFAC
:1086A000FFF7EAFE002002B0BDE87040FFF790BE81
:1086B00000ED00E000E0014000400000FC6F0440DD
:1086C00000080440000D004000600040007B0020D6
:1086D00058020020007F0020A41C00200000002081
:1086E000400200208C220100F80100202802002016
:1086F000064B074A1B6A1268C3F3026123FA00F0B3
:108700008A4000F0070022FA00F0704700E00140C4
:108710009C1C00202DE9F04782462DED028B0020A5
:108720000C46FFF7E5FF07EE900AB8EE678A28EEE1
:10873000008A18EE100A05F0F5F9064620460F46A5
:1087400005F0CEF904460D4602460B463046394642
:1087500005F0B2FC50B1BCEEC88A00238AED0B8A4A
:108760008AF83430BDEC028BBDE8F08700223A4B2A
:108770003046394605F02EFA8046894602460B46B9
:108780002046294605F0B6FC38B14046494605F07A
:10879000D1FC0223CAF82C00E2E700222F4B30461E
:1087A000394605F017FA8046894602460B462046B0
:1087B000294605F09FFC38B14046494605F0BAFC11
:1087C0000423CAF82C00CBE70022254B304639465B
:1087D00005F000FA8046894602460B4620462946A7
:1087E00005F088FC38B14046494605F0A3FC062355
:1087F000CAF82C00B4E700221A4B3046394605F07F
:10880000E9F98046894602460B462046294605F08E
:1088100071FC38B14046494605F08CFC0823CAF883
:108820002C009DE70022104B3046394605F0D2F966
:1088300006460F4602460B462046294605F05AFCDE
:1088400038B13046394605F075FC0A23CAF82C00C9
:1088500086E78AF8000085E70000D03F0000B03FBF
:108860000000903F0000703F0000503F0022027067
:10887000C0E9012280F83520012280F83620DF226D
:10888000827770472DE9F04704464FF000081F46F5
:108890009DF8283080F8008021730375089B0361E0
:1088A000099B83610B9B03620C9BDFF84091C0E93D
:1088B0000938FF238A4643771546002A3ED184F8BB
:1088C0003520502004F0ABFF4FF6FF73A0F8423084
:1088D00000F12008DF2380F8205080F8215080F834
:1088E000225080F82350C0E90955C562C0E90E55F1
:1088F000C0E90C5580F8443080F8453080F840508D
:1089000080F84150C0E91255C4F828802022294639
:10891000064605F08BFE072FA6605AD8314ABAF1F9
:10892000020FD35D114642D099F80000002856D1BD
:10893000002B4ED102232777D35548E0012A48D196
:1089400084F83520242004F06AFF837880F80080C2
:1089500068F3020383704378C57003F0F80368F38B
:1089600006130646437080F8048080F8058080F87E
:108970000680A0621C224146083005F057FE012FF8
:10898000666026D8184BBAF1020FDA5D194602D09C
:1089900099F8000028B1012A1BD802232777CB556C
:1089A00015E0B2B90222DA552777257011E0012BC4
:1089B000F3D92777384601F035FE3022816A4046E8
:1089C00005F010FE384601F02DFE036BA361012374
:1089D0002370002389F800302078BDE8F087012B50
:1089E000DAE700BFAA040020A8040020B204002097
:1089F000194A70B5002316469C5C1CB95BB2047022
:108A0000184670BD0133082BF6D1144B1C7814B1F5
:108A10005D78DDB90124012263B20270F0E707221C
:108A2000B15C022953B205D0002202700C4A012128
:108A30001170E5E712F1FF32F2D2022D01D00123CD
:108A400002E0022C04D000230122EEE70029E6D147
:108A50004FF0FF33D4E700BFAA040020A804002091
:108A6000B20400202DE9F84F82462DED028B14460A
:108A70008B4631B9BDEC028B1146BDE8F84FFFF7CC
:108A800049BE012939D10820FFF732FE07EE100A4E
:108A9000B8EE478A28EE008A18EE100A05F042F870
:108AA000064620460F4605F01BF804460D460246D2
:108AB0000B463046394605F0FFFA38B1BCEEC88A9D
:108AC00000238AED0B8A8AF8343016E000221A4B14
:108AD0003046394605F07EF88046894602460B4608
:108AE0002046294605F006FB58B14046494605F0A8
:108AF00021FB8AF834B0CAF82C00BDEC028BBDE82B
:108B0000F88F00224FF07F533046394605F062F867
:108B100006460F4602460B462046294605F0EAFA6D
:108B200038B13046394605F005FB0323CAF82C005E
:108B3000C9E78AF80000E0E70000E03FF0B52DED5E
:108B4000028B1E460123F7EE007A9E4287B0044650
:108B50000F461546B0EE608A037087EE800A3BD858
:108B6000002A39D14FF0FF31FFF7D4FDB5EEC08AAE
:108B7000F1EE10FA37DBDFED1D7AB4EEE78AF1EEA5
:108B800010FA30D8D4ED0B7AF8EE677A67EE887A6F
:108B900017EE900A04F0C6FF0022154B05F044F9C9
:108BA00005F0C8FA206323788BB10F9B04930E9BCA
:108BB000039394F834300293236B0193E36A009398
:108BC0002A46334639462046FFF75CFE207020785F
:108BD00007B0BDEC028BF0BD4FF6FF722946204670
:108BE000FFF740FFC2E700232370DCE70000C84224
:108BF00000005940007F704738B590F83530044682
:108C00008BB9806808B9002038BD04F10C01FEF76B
:108C1000A1FA0546A068FEF7C5F90E2D01D0002D7A
:108C2000F1D10120F0E7012BEDD140680028EAD016
:108C300004F10C010830FEF7D3FF054660680830E8
:108C4000FFF79EF8E9E708B590F835303BB9806842
:108C500020B1FEF795F9B0FA80F0400908BD012B6C
:108C600006D140680028F9D00830FFF76BF8F2E72A
:108C70000020F3E708B590F835303BB9806820B1A3
:108C8000FEF78AF9B0FA80F0400908BD012B06D141
:108C900040680028F9D00830FFF762F8F2E70020BA
:108CA000F3E708B590F835303BB9806820B1FEF79E
:108CB0006DF9B0FA80F0400908BD012B06D140687B
:108CC0000028F9D00830FFF71BF8F2E70020F3E79F
:108CD00008B590F835303BB9806820B1FEF7DEF971
:108CE000B0FA80F0400908BD012B06D14068002889
:108CF000F9D00830FFF74EF8F2E70020F3E7FFFF66
:108D000038B50446FFF7E4FF606838B1237F0C4AAA
:108D100000252421D55404F071FD6560A56875B166
:108D2000237F084AA86C0021D15410B1202104F0FF
:108D300065FD5021284604F061FD0023A36038BD85
:108D4000A8040020AA04002010B50446FFF7D8FFAD
:108D5000204610BD806808B14162012070478068DC
:108D600008B1C1620120704701F10C0303608B68F8
:108D700003B1203343604B6883607047836823B13D
:108D80001868003018BF0120704740680028FBD0E9
:108D90008068F6E7F0B585B004460F46014601A8A5
:108DA0001546FFF7E1FF2046FFF7E8FF064610B142
:108DB0002046FFF78DFF00F055F82A4601A900F084
:108DC0001DF9054650B167772EB12046FFF714FF15
:108DD0002046FFF766FF284605B0F0BDDF23A377E6
:108DE000F2E7FFFF00F1C0020A4B53F822106FF3C5
:108DF000104143F8221000F01F024009800000F1EA
:108E0000604000F5614001239340C0F88031036069
:108E1000704700BF006000404309012200F01F00BE
:108E200002FA00F02033044A42F82300BFF34F8FC8
:108E3000BFF36F8F704700BF00E100E07047FFFF96
:108E40000028A7BF00F1604000F5614000F00F006E
:108E5000034BABBFC023C02280F800331A547047C5
:108E600014ED00E038B50A4D2B78BFF35B8F13F09B
:108E700001040BD1284604F0C3FC38B1054B284649
:108E80001C6004F0C9FC044802F0AFFA014838BD88
:108E9000B4040020B80400203D8E00002AB9304BF5
:108EA000C031012243F821207047012A03D1C0318B
:108EB0002B4B0222F6E7022A03D1C031284B0322B2
:108EC000F0E7032A03D1C031254B0422EAE7042A44
:108ED00003D1C031224B0522E4E7052A03D1C0317A
:108EE0001F4B0622DEE7062A03D1C0311C4B0722A6
:108EF000D8E7072A03D1C031194B0822D2E7082A44
:108F000003D1C031164B0922CCE7092A03D1C03165
:108F1000134B0A22C6E70A2A03D1C031104B0B2299
:108F2000C0E70B2A03D1C0310D4B0C22BAE70C2A43
:108F300003D1C0310A4B0D22B4E70D2A03D1C03151
:108F4000074B0E22AEE70E2A03D1C031044B0F228D
:108F5000A8E70F2AA8D1C031014B1022A2E700BF19
:108F60000060004032B91A4BC0315D2243F8212025
:108F700001207047012A05D1C031154B652043F807
:108F80002100F5E7022A03D1C031114B6D22EDE734
:108F9000032A03D1C0310E4B7522E7E7042A03D11F
:108FA000C0310B4B7D22E1E7052A03D1C031084BCC
:108FB0008522DBE7062A03D1C031054B8D22D5E798
:108FC000072A03D1C031024B9522CFE7002070471A
:108FD0000060004032B9C031074B1E2243F8212007
:108FE00001207047012A05D1C031034B212043F8ED
:108FF0002100F5E70020704700600040F8B51B4BEA
:109000009E680B68174693F91220213205460C46DC
:1090100001D00120F8BD4A6840368AB11A7C016847
:10902000FFF7A0FF0028F4D02268082353742B68B0
:109030009374AFB90E4A46F8232001332B60E9E759
:109040008A6882B11A7C0168FFF7C4FF0028E0D06B
:109050002268082353742B6893740FB9054AEAE712
:1090600046F82370E9E71046D4E700BF00ED00E0C2
:10907000C1730000FD7D00002AB9064BC0313622C5
:1090800043F821207047012AFCD1C031014B3B221B
:10909000F6E700BF006000402AB9064BC031352218
:1090A00043F821207047012AFCD1C031014B3A22FC
:1090B000F6E700BF006000402AB9064BC0313722F6
:1090C00043F821207047012AFCD1C031014B3C22DA
:1090D000F6E700BF006000402AB9064BC0313822D5
:1090E00043F821207047012AFCD1C031014B3D22B9
:1090F000F6E700BF006000402AB90C4BC03199224E
:1091000043F821207047012A03D1C031074B9F2229
:10911000F6E7022A03D1C031044BA422F0E7092A62
:10912000F0D1C031014BA922EAE700BF0060004046
:109130002AB90C4BC031982243F821207047012AEC
:1091400003D1C031074B9E22F6E7022A03D1C0317A
:10915000044BA322F0E7092AF0D1C031014BA82229
:10916000EAE700BF006000402AB90C4BC0319A22E8
:1091700043F821207047012A03D1C031074BA022B8
:10918000F6E7022A03D1C031044BA522F0E7092AF1
:10919000F0D1C031014BAA22EAE700BF00600040D5
:1091A0002AB90C4BC0319B2243F821207047012A79
:1091B00003D1C031074BA122F6E7022A03D1C03107
:1091C000044BA622F0E7092AF0D1C031014BAB22B3
:1091D000EAE700BF006000402AB9064BC031AE226A
:1091E00043F821207047012AFCD1C031014BB32242
:1091F000F6E700BF006000402AB9064BC031AD223F
:1092000043F821207047012AFCD1C031014BB22222
:10921000F6E700BF006000402AB9064BC031B1221A
:1092200043F821207047012AFCD1C031014BB622FE
:10923000F6E700BF006000402AB9064BC031B022FB
:1092400043F821207047012AFCD1C031014BB522DF
:10925000F6E700BF006000402DE9F84FAD4B9E6877
:1092600004461546403672B6012940F08E80002A29
:1092700000F098809368213340F08580036812687D
:109280001A441F2A00F23D846A68DFF8A48246F877
:109290002320C033332248F8232090F90000FFF741
:1092A000BBFD94F90030C03358F823206FF310420F
:1092B00048F8232094F90000FFF7C2FD94F900005C
:1092C000FFF790FD23686968AB605A1CC1332260C8
:1092D00046F82210342248F8232094F90000FFF7C2
:1092E0009BFD94F90030C03358F823206FF31042EF
:1092F00048F8232094F90000FFF7A2FD94F900003C
:10930000FFF770FD236869685A1CC133226046F874
:109310002210312248F8232094F90000FFF77CFD49
:1093200094F90030C03358F823206FF3104248F806
:10933000232094F90000FFF783FD94F90000FFF764
:1093400051FD236869685A1CC133226046F8221017
:10935000322248F8232094F90000FFF75DFD94F9CC
:109360000030C03358F823206FF3104248F8232010
:1093700094F90000FFF764FD94F90000FFF732FD57
:1093800023680133236001250CE002290ED14AB184
:1093900093682133F7D10068156805441F2D8CBFF1
:1093A0000025012562B62846BDE8F88F032910D1B3
:1093B000002AF7D092F912302133E4D10E235374EE
:1093C0000168554B917446F82130127CFFF702FE7C
:1093D000D6E7042944D1002AE4D092F9073021339A
:1093E0002DD10C27977101684C4BD17146F8213073
:1093F0001278FFF781FE0168494B01310160697203
:109400002F7246F821302A78FFF7AEFE0168454BEF
:109410000131016069712F7146F821302A78FFF718
:1094200087FE0168404B01310160AF72E97246F876
:1094300021302A78FFF7B4FE03680133036095F901
:109440000700FFF7CFFC95F90900FFF7CBFC95F972
:109450000500FFF7C7FC95F90B00FFF7C3FC92E787
:10946000002940F09480002A9CD0137A3BBB1268FC
:1094700092F90D3021331ED10C23137303685373FB
:109480002A4A46F82320C033294A262142F82310CD
:109490002B68686893F90D101B7B01F160421B017A
:1094A00002F56142DBB282F80033224B43F821001F
:1094B0002368013323602B6893F90D00CDE7012B5E
:1094C0003AD1126892F90F3021331ED10C239373D5
:1094D0000368D373154A46F82320C033144A272162
:1094E00042F823102B68686893F90F109B7B01F1F9
:1094F00060421B0102F56142DBB282F800330D4B82
:1095000043F821002368013323602B6893F90F008F
:10951000A3E700BF00ED00E0FD7D00008D5A0000D4
:10952000E95C00006D5B0000295D000071620000D5
:1095300000600040141C0020022B40F0E282126800
:1095400092F9113021331ED10C2313740368537424
:10955000AD4A46F82320C033AC4A282142F82310F4
:109560002B68686893F911101B7C01F160421B01A4
:1095700002F56142DBB282F80033A54B43F82100CB
:109580002368013323602B6893F9110065E70529EF
:109590007CD1002A3FF406AFD2E9007B0C237B7319
:1095A00097F90F30213350D10168DFF89882DFF846
:1095B00060924BB2FB738BF80D303A78FFF75CFD8D
:1095C00090F9003008EB03024FF0C00A82F800A3C4
:1095D000016849F8237001314BB20160BB738BF80D
:1095E0000C302B681A78FFF757FD90F9003008EB24
:1095F000030282F800A3016849F8237001314BB2DD
:1096000001603B748BF80E302B681A78FFF754FD1D
:1096100090F9003008EB030282F800A3016849F8D2
:10962000237001314BB201607B748BF80F302B68D3
:109630001A78FFF751FD90F90030984488F800A39C
:1096400049F8237003680133036097F90F00714BE9
:1096500046F8203097F90E306F4A46F8232097F9E4
:1096600010306E4A46F8232097F911306C4A46F8BC
:109670002320FFF7B7FB97F90E00FFF7B3FB97F92D
:109680001000FFF7AFFB97F91100E6E6062952D16B
:10969000002A3FF487AE17680C237B7397F90F30CD
:1096A00021333DD101685F4BF97346F821303A7898
:1096B000DFF89081DFF85891FFF71EFD90F9003038
:1096C00008EB03024FF0C00A82F800A3016849F8D2
:1096D00023700131544B0160B97346F821302B6877
:1096E0001A78FFF725FD90F9003008EB030282F8A5
:1096F00000A3016849F8237001314C4B01603974B3
:1097000046F821302B681A78FFF72EFD90F90030CB
:10971000984488F800A349F8237003680133036074
:1097200097F90F00FFF75EFB97F90E00FFF75AFB62
:1097300097F9100091E6072951D1002A3FF432AE83
:10974000D2E9007540F60C432B8295F90D30213398
:1097500024D101684BB2FB732A786B73FFF78CFC42
:10976000016801314BB201602B73BB732A78FFF79C
:1097700093FC016801314BB20160AB733B742A78F2
:10978000FFF79AFC016801314BB20160EB737B7407
:109790002A78FFF7A1FC03680133036095F90D00F7
:1097A000234B46F8203095F90C30224A46F8232006
:1097B00095F90E30204A46F8232095F90F301F4ABC
:1097C00046F82320FFF70EFB95F90C00FFF70AFB84
:1097D00095F90E00FFF706FB95F90F003DE6082905
:1097E00032D1002A00F08D8192F9023021337FF4CA
:1097F000CAAD0C2353700168114B917046F82130AB
:109800001278FFF74BFBBBE5D96200000060004017
:10981000141C0020C96B0000916A0000B56C0000A8
:10982000756D0000E15F0000C15F00008161000014
:1098300089660000696500002D670000C1670000AF
:10984000156F000000E100E0092974D1002A3FF4FF
:10985000A9AD576897F90230213361D192F808A079
:109860000168A94BD2F80090B9704FF0060B87F849
:1098700006B0524646F82130FFF7AEFCA34D97F9EB
:109880000220BB79DFF8B082A9181B01DBB281F896
:10989000003301689E4B48F8229001310160524626
:1098A000797087F805B046F82130FFF7A5FC97F9E5
:1098B00001207B79A9181B01DBB281F80033016814
:1098C000944B48F82290013101605246397187F873
:1098D00008B046F82130FFF7AFFC97F904203B7A37
:1098E000A9181B01DBB281F8003301688A4B48F8E4
:1098F0002290013101605246F97087F807B046F8AE
:109900002130FFF789FC97F90320FB7915441B01EF
:10991000DBB285F80033036848F822900133036016
:1099200097F90200FFF75EFA97F90100FFF75AFA7C
:1099300097F9040091E50A2978D1002A3FF432AD65
:10994000576897F90230213361D192F808A0016875
:10995000724BD2F80090B9704FF0060B87F806B042
:10996000524646F82130FFF7C7FB684D97F90220B1
:10997000BB79DFF8C481A9181B01DBB281F8003381
:109980000168674B48F822900131016052467970B6
:1099900087F805B046F82130FFF7CAFB97F9012098
:1099A0007B79A9181B01DBB281F8003301685D4B9C
:1099B00048F82290013101605246397187F808B0A9
:1099C00046F82130FFF7ECFB97F904203B7AA91801
:1099D0001B01DBB281F800330168534B48F8229039
:1099E000013101605246F97087F807B046F821301E
:1099F000FFF7BAFB97F90320FB7915441B01DBB293
:109A000085F80033036848F822900133036097F922
:109A10000200FFF7E7F997F90100FFF7E3F997F97B
:109A20000400FFF7DFF997F9030016E50B2968D169
:109A3000002A3FF4B7ACD2E900150C232B7595F939
:109A40001530213352D10368384A6B7546F823200C
:109A50002A6822B9C033364A4A2042F8230095F9D1
:109A600015002B7D334F00F1604202F561421B016E
:109A7000DBB282F8003322682F4B43F82010501CD1
:109A80002060A87546F82070286820B9C13228489F
:109A90004D2740F8227095F916702A7D07F1604035
:109AA00000F561401201D2B280F80023226843F829
:109AB0002710501C214F2060E87546F82070286858
:109AC00020B9C1321A484E2640F8226095F9176035
:109AD0002A7D06F16040120100F56140D2B280F8A3
